{
  "_format": "hh-sol-artifact-1",
  "contractName": "ICO",
  "sourceName": "contracts/final.sol",
  "abi": [
    {
      "inputs": [],
      "stateMutability": "nonpayable",
      "type": "constructor"
    },
    {
      "anonymous": false,
      "inputs": [
        {
          "indexed": true,
          "internalType": "address",
          "name": "investor",
          "type": "address"
        },
        {
          "indexed": false,
          "internalType": "uint256",
          "name": "amount",
          "type": "uint256"
        }
      ],
      "name": "Claim",
      "type": "event"
    },
    {
      "anonymous": false,
      "inputs": [
        {
          "indexed": true,
          "internalType": "address",
          "name": "investor",
          "type": "address"
        },
        {
          "indexed": false,
          "internalType": "uint256",
          "name": "amount",
          "type": "uint256"
        }
      ],
      "name": "Deposit",
      "type": "event"
    },
    {
      "anonymous": false,
      "inputs": [
        {
          "indexed": true,
          "internalType": "address",
          "name": "investor",
          "type": "address"
        },
        {
          "indexed": false,
          "internalType": "uint256",
          "name": "amount",
          "type": "uint256"
        }
      ],
      "name": "Withdraw",
      "type": "event"
    },
    {
      "inputs": [
        {
          "internalType": "address",
          "name": "",
          "type": "address"
        }
      ],
      "name": "balances",
      "outputs": [
        {
          "internalType": "uint256",
          "name": "",
          "type": "uint256"
        }
      ],
      "stateMutability": "view",
      "type": "function"
    },
    {
      "inputs": [],
      "name": "claim",
      "outputs": [],
      "stateMutability": "payable",
      "type": "function"
    },
    {
      "inputs": [],
      "name": "deposit",
      "outputs": [],
      "stateMutability": "payable",
      "type": "function"
    },
    {
      "inputs": [
        {
          "internalType": "address",
          "name": "",
          "type": "address"
        }
      ],
      "name": "deposits",
      "outputs": [
        {
          "internalType": "uint256",
          "name": "",
          "type": "uint256"
        }
      ],
      "stateMutability": "view",
      "type": "function"
    },
    {
      "inputs": [],
      "name": "endTime",
      "outputs": [
        {
          "internalType": "uint256",
          "name": "",
          "type": "uint256"
        }
      ],
      "stateMutability": "view",
      "type": "function"
    },
    {
      "inputs": [],
      "name": "hardCap",
      "outputs": [
        {
          "internalType": "uint256",
          "name": "",
          "type": "uint256"
        }
      ],
      "stateMutability": "view",
      "type": "function"
    },
    {
      "inputs": [],
      "name": "maxPurchase",
      "outputs": [
        {
          "internalType": "uint256",
          "name": "",
          "type": "uint256"
        }
      ],
      "stateMutability": "view",
      "type": "function"
    },
    {
      "inputs": [],
      "name": "minPurchase",
      "outputs": [
        {
          "internalType": "uint256",
          "name": "",
          "type": "uint256"
        }
      ],
      "stateMutability": "view",
      "type": "function"
    },
    {
      "inputs": [],
      "name": "myDeposit",
      "outputs": [
        {
          "internalType": "uint256",
          "name": "",
          "type": "uint256"
        }
      ],
      "stateMutability": "view",
      "type": "function"
    },
    {
      "inputs": [],
      "name": "owner",
      "outputs": [
        {
          "internalType": "address",
          "name": "",
          "type": "address"
        }
      ],
      "stateMutability": "view",
      "type": "function"
    },
    {
      "inputs": [],
      "name": "priceToken",
      "outputs": [
        {
          "internalType": "uint256",
          "name": "",
          "type": "uint256"
        }
      ],
      "stateMutability": "view",
      "type": "function"
    },
    {
      "inputs": [],
      "name": "softCap",
      "outputs": [
        {
          "internalType": "uint256",
          "name": "",
          "type": "uint256"
        }
      ],
      "stateMutability": "view",
      "type": "function"
    },
    {
      "inputs": [],
      "name": "startTime",
      "outputs": [
        {
          "internalType": "uint256",
          "name": "",
          "type": "uint256"
        }
      ],
      "stateMutability": "view",
      "type": "function"
    },
    {
      "inputs": [],
      "name": "totalMoney",
      "outputs": [
        {
          "internalType": "uint256",
          "name": "",
          "type": "uint256"
        }
      ],
      "stateMutability": "view",
      "type": "function"
    },
    {
      "inputs": [],
      "name": "totalToken",
      "outputs": [
        {
          "internalType": "uint256",
          "name": "",
          "type": "uint256"
        }
      ],
      "stateMutability": "view",
      "type": "function"
    },
    {
      "inputs": [],
      "name": "withdraw",
      "outputs": [],
      "stateMutability": "payable",
      "type": "function"
    }
  ],
  "bytecode": "0x608060405261138860015566038d7ea4c6800060025560006003556364597ef060045563645a19a060055567016345785d8a0000600655671bc16d674ec8000060075566038d7ea4c680006008556706f05b59d3b2000060095534801561006557600080fd5b50336000806101000a81548173ffffffffffffffffffffffffffffffffffffffff021916908373ffffffffffffffffffffffffffffffffffffffff160217905550600154600b60008060009054906101000a900473ffffffffffffffffffffffffffffffffffffffff1673ffffffffffffffffffffffffffffffffffffffff1673ffffffffffffffffffffffffffffffffffffffff168152602001908152602001600020819055506112508061011c6000396000f3fe6080604052600436106100f35760003560e01c806378e979251161008a578063977b055b11610059578063977b055b146102cc578063d0e30db0146102f7578063fb86a40414610301578063fc7e286d1461032c576100f3565b806378e979251461022057806387da21e31461024b5780638da5cb5b14610276578063906a26e0146102a1576100f3565b806333b5b62e116100c657806333b5b62e146101b65780633ccfd60b146101e15780634e71d92d146101eb578063626be567146101f5576100f3565b806327e235e3146100f85780632a096397146101355780632ff6fe76146101605780633197cbb61461018b575b600080fd5b34801561010457600080fd5b5061011f600480360381019061011a9190610c6f565b610369565b60405161012c9190610cb5565b60405180910390f35b34801561014157600080fd5b5061014a610381565b6040516101579190610cb5565b60405180910390f35b34801561016c57600080fd5b506101756103c8565b6040516101829190610cb5565b60405180910390f35b34801561019757600080fd5b506101a06103ce565b6040516101ad9190610cb5565b60405180910390f35b3480156101c257600080fd5b506101cb6103d4565b6040516101d89190610cb5565b60405180910390f35b6101e96103da565b005b6101f3610620565b005b34801561020157600080fd5b5061020a610987565b6040516102179190610cb5565b60405180910390f35b34801561022c57600080fd5b5061023561098d565b6040516102429190610cb5565b60405180910390f35b34801561025757600080fd5b50610260610993565b60405161026d9190610cb5565b60405180910390f35b34801561028257600080fd5b5061028b610999565b6040516102989190610cdf565b60405180910390f35b3480156102ad57600080fd5b506102b66109bd565b6040516102c39190610cb5565b60405180910390f35b3480156102d857600080fd5b506102e16109c3565b6040516102ee9190610cb5565b60405180910390f35b6102ff6109c9565b005b34801561030d57600080fd5b50610316610bee565b6040516103239190610cb5565b60405180910390f35b34801561033857600080fd5b50610353600480360381019061034e9190610c6f565b610bf4565b6040516103609190610cb5565b60405180910390f35b600b6020528060005260406000206000915090505481565b6000600a60003373ffffffffffffffffffffffffffffffffffffffff1673ffffffffffffffffffffffffffffffffffffffff16815260200190815260200160002054905090565b60025481565b60055481565b60085481565b600554421161041e576040517f08c379a000000000000000000000000000000000000000000000000000000000815260040161041590610d7d565b60405180910390fd5b6000600a60003373ffffffffffffffffffffffffffffffffffffffff1673ffffffffffffffffffffffffffffffffffffffff16815260200190815260200160002054116104a0576040517f08c379a000000000000000000000000000000000000000000000000000000000815260040161049790610e0f565b60405180910390fd5b600654600354106104e6576040517f08c379a00000000000000000000000000000000000000000000000000000000081526004016104dd90610e7b565b60405180910390fd5b6000600a60003373ffffffffffffffffffffffffffffffffffffffff1673ffffffffffffffffffffffffffffffffffffffff168152602001908152602001600020549050806003600082825461053c9190610eca565b925050819055506000600a60003373ffffffffffffffffffffffffffffffffffffffff1673ffffffffffffffffffffffffffffffffffffffff168152602001908152602001600020819055503373ffffffffffffffffffffffffffffffffffffffff166108fc829081150290604051600060405180830381858888f193505050501580156105ce573d6000803e3d6000fd5b503373ffffffffffffffffffffffffffffffffffffffff167f884edad9ce6fa2440d8a54cc123490eb96d2768479d49ff9c7366125a9424364826040516106159190610cb5565b60405180910390a250565b6005544211610664576040517f08c379a000000000000000000000000000000000000000000000000000000000815260040161065b90610f4a565b60405180910390fd5b6000600a60003373ffffffffffffffffffffffffffffffffffffffff1673ffffffffffffffffffffffffffffffffffffffff16815260200190815260200160002054116106e6576040517f08c379a00000000000000000000000000000000000000000000000000000000081526004016106dd90610e0f565b60405180910390fd5b600654600354101561072d576040517f08c379a000000000000000000000000000000000000000000000000000000000815260040161072490610e7b565b60405180910390fd5b6000600254600a60003373ffffffffffffffffffffffffffffffffffffffff1673ffffffffffffffffffffffffffffffffffffffff1681526020019081526020016000205461077c9190610f99565b905060008054906101000a900473ffffffffffffffffffffffffffffffffffffffff1673ffffffffffffffffffffffffffffffffffffffff166108fc600a60003373ffffffffffffffffffffffffffffffffffffffff1673ffffffffffffffffffffffffffffffffffffffff168152602001908152602001600020549081150290604051600060405180830381858888f19350505050158015610823573d6000803e3d6000fd5b506000600a60003373ffffffffffffffffffffffffffffffffffffffff1673ffffffffffffffffffffffffffffffffffffffff1681526020019081526020016000208190555080600b60003373ffffffffffffffffffffffffffffffffffffffff1673ffffffffffffffffffffffffffffffffffffffff16815260200190815260200160002060008282546108b89190610fca565b9250508190555080600b60008060009054906101000a900473ffffffffffffffffffffffffffffffffffffffff1673ffffffffffffffffffffffffffffffffffffffff1673ffffffffffffffffffffffffffffffffffffffff168152602001908152602001600020600082825461092f9190610eca565b925050819055503373ffffffffffffffffffffffffffffffffffffffff167f47cee97cb7acd717b3c0aa1435d004cd5b3c8c57d70dbceb4e4458bbd60e39d48260405161097c9190610cb5565b60405180910390a250565b60015481565b60045481565b60035481565b60008054906101000a900473ffffffffffffffffffffffffffffffffffffffff1681565b60065481565b60095481565b600454421015610a0e576040517f08c379a0000000000000000000000000000000000000000000000000000000008152600401610a059061104a565b60405180910390fd5b600554421115610a53576040517f08c379a0000000000000000000000000000000000000000000000000000000008152600401610a4a906110b6565b60405180910390fd5b600854341015610a98576040517f08c379a0000000000000000000000000000000000000000000000000000000008152600401610a8f90611122565b60405180910390fd5b600954341115610add576040517f08c379a0000000000000000000000000000000000000000000000000000000008152600401610ad49061118e565b60405180910390fd5b60075460035434610aee9190610fca565b1115610b2f576040517f08c379a0000000000000000000000000000000000000000000000000000000008152600401610b26906111fa565b60405180910390fd5b34600a60003373ffffffffffffffffffffffffffffffffffffffff1673ffffffffffffffffffffffffffffffffffffffff1681526020019081526020016000206000828254610b7e9190610fca565b925050819055503460036000828254610b979190610fca565b925050819055503373ffffffffffffffffffffffffffffffffffffffff167fe1fffcc4923d04b559f4d29a8bfc6cda04eb5b0d3c460751c2402c5c5cc9109c34604051610be49190610cb5565b60405180910390a2565b60075481565b600a6020528060005260406000206000915090505481565b600080fd5b600073ffffffffffffffffffffffffffffffffffffffff82169050919050565b6000610c3c82610c11565b9050919050565b610c4c81610c31565b8114610c5757600080fd5b50565b600081359050610c6981610c43565b92915050565b600060208284031215610c8557610c84610c0c565b5b6000610c9384828501610c5a565b91505092915050565b6000819050919050565b610caf81610c9c565b82525050565b6000602082019050610cca6000830184610ca6565b92915050565b610cd981610c31565b82525050565b6000602082019050610cf46000830184610cd0565b92915050565b600082825260208201905092915050565b7f5769746864726177616c73206e6f7420616c6c6f77656420617420746869732060008201527f74696d652e000000000000000000000000000000000000000000000000000000602082015250565b6000610d67602583610cfa565b9150610d7282610d0b565b604082019050919050565b60006020820190508181036000830152610d9681610d5a565b9050919050565b7f596f7520646f6e277420686176656e27742065766572206465706f736974656460008201527f2e00000000000000000000000000000000000000000000000000000000000000602082015250565b6000610df9602183610cfa565b9150610e0482610d9d565b604082019050919050565b60006020820190508181036000830152610e2881610dec565b9050919050565b7f54686973206973207375636365737366756c206265616c2e0000000000000000600082015250565b6000610e65601883610cfa565b9150610e7082610e2f565b602082019050919050565b60006020820190508181036000830152610e9481610e58565b9050919050565b7f4e487b7100000000000000000000000000000000000000000000000000000000600052601160045260246000fd5b6000610ed582610c9c565b9150610ee083610c9c565b9250828203905081811115610ef857610ef7610e9b565b5b92915050565b7f436c61696d73206e6f7420616c6c6f77656420617420746869732074696d652e600082015250565b6000610f34602083610cfa565b9150610f3f82610efe565b602082019050919050565b60006020820190508181036000830152610f6381610f27565b9050919050565b7f4e487b7100000000000000000000000000000000000000000000000000000000600052601260045260246000fd5b6000610fa482610c9c565b9150610faf83610c9c565b925082610fbf57610fbe610f6a565b5b828204905092915050565b6000610fd582610c9c565b9150610fe083610c9c565b9250828201905080821115610ff857610ff7610e9b565b5b92915050565b7f49434f20686173206e6f742079657420737461727465642e0000000000000000600082015250565b6000611034601883610cfa565b915061103f82610ffe565b602082019050919050565b6000602082019050818103600083015261106381611027565b9050919050565b7f49434f2068617320656e6465642e000000000000000000000000000000000000600082015250565b60006110a0600e83610cfa565b91506110ab8261106a565b602082019050919050565b600060208201905081810360008301526110cf81611093565b9050919050565b7f4465706f73697420616d6f756e742069732062656c6f77206d696e696d756d2e600082015250565b600061110c602083610cfa565b9150611117826110d6565b602082019050919050565b6000602082019050818103600083015261113b816110ff565b9050919050565b7f4465706f73697420616d6f756e742069732061626f7665206d6178696d756d2e600082015250565b6000611178602083610cfa565b915061118382611142565b602082019050919050565b600060208201905081810360008301526111a78161116b565b9050919050565b7f4465706f73697420616d6f756e7420657863656564732068617264206361702e600082015250565b60006111e4602083610cfa565b91506111ef826111ae565b602082019050919050565b60006020820190508181036000830152611213816111d7565b905091905056fea26469706673582212209649db76aba030ea169663ab7b1f78f395f7c4f2ffad4098f704d79864fe543864736f6c63430008120033",
  "linkReferences": {},
  "deployedLinkReferences": {}
}